:1000000015308A00E12D0000FF00030E8301A100DE
:100010000A08A0008A010408A2007708A300780853
:10002000A4007908A5007A08A60003170D08031399
:10003000A70003170F080313A80003170C080313E6
:10004000A90003170E080313AA00831383128C3030
:100050008400001C2D280C184E2822088400230838
:10006000F7002408F8002508F9002608FA002708F8
:1000700003178D000313280803178F0003132908A3
:1000800003178C0003132A0803178E00031320089C
:100090008A00210E8300FF0E7F0E09008A110A12CA
:1000A0005128B808031D73288316861283128616FA
:1000B0000130B8003908FF3C8316E200FF30E3004E
:1000C00083123A08031C3A0F662869288316E30254
:1000D00083128E018316630883128F0083166208D1
:1000E00083128E009728380B972883168612831266
:1000F0008612B8013908883CF7001330FA003A0834
:10010000031C3A0FFA027708FF3C8316E200FF3027
:10011000E3007A08031C7A0FE30283128E01831630
:10012000630883128F008316620883128E000130E9
:10013000BB070318BC0A0319BD0A0319BE0A0C1039
:100140008A110A122D28533A6139F434EE330D0521
:100150000000AD16AD16AD16AD16AD162D0500009E
:100160000B08C2008B13831603178C170C140000A6
:10017000000083120313C21B8B1703170C087F396F
:10018000031906290313C20003170D080313C30044
:1001900003170F080313C40042080C1ECD28990052
:1001A000430803178D000313440803178F0003133C
:1001B0000B08C5008B13831603178C170C14000053
:1001C000000083120313C51B8B1703170C0D0E0DB4
:1001D0007F39031906290313C20003170D080313FF
:1001E000C30003170F080313C40042080C1EF628AF
:1001F0009900430803178D000313440803178F0069
:100200008D0A03198F0A0313B0280317031308007C
:1002100094138C1183164A08831293000230941BA6
:1002200018298C1D112900308316111B01308312EF
:10023000F800080014138316911591191D297718D9
:100240009112771C91161116111A24298312130882
:10025000F80008008316111411182C2983122B089A
:100260008316CA008312082183164708CA00831226
:1002700008217808B6008316911491183D2983123D
:100280002B0801388316C900CA0083120821F70120
:100290001A2178088316C8004808F800831208005D
:1002A000831611141118522983122B088316CA00C1
:1002B0008312082165088316CA0083120821660884
:1002C0008316CA00831208217808B6008316111518
:1002D00011196829831208005308DA005708DA0652
:1002E000DA1F772903110310D31B0314AA2953081B
:1002F000DA005608DB005208DB0203198529DA1FF1
:10030000AA290308013A8300AA295708DB005308E9
:10031000DB0203199129DA1FAA290308013A830095
:10032000AA295808DB005408DB0203199D29DA1FAB
:10033000AA290308013A8300AA295908DB005508B5
:10034000DB020319A929DA1FAA290308013A83004D
:10035000AA29031008008E30F7005208F70253084C
:10036000F9005408F800F917F7080319C229031017
:10037000F908031DBE29F8080319C229F90CF80C65
:10038000F70BB729D31FC929F809F909F80A031986
:10039000F90A0800831611141118CC2983122B08AE
:1003A0008316CA008312082183164208CA008312EA
:1003B000082183164408C500C601C6014408CA00C6
:1003C0008312082183164308C500C6014308CA00EA
:1003D000831208217808B600831611151119EE2929
:1003E000831208005108D5005008D4004F08D300EC
:1003F0004E08D200D901D801D701D6016C210318CB
:10040000142AB830D500FE30D4007F30D3008730B6
:10041000D2005108D9005008D8004F08D7004E0824
:10042000D6006C21031C172A0030F800B42A5108AA
:10043000D5005008D4004F08D3004E08D200D9018F
:10044000D801D7018630D60052080319942ADA0061
:1004500056080319942ADA070318352A7F30DA027E
:10046000031C942A0319942A392A8130DA070318C5
:10047000942A5A08F700F801F901FA015308DE003E
:10048000DE175408DD005508DC001830DA00DB0107
:100490005C1C622A5908FA07031C542AF90A031D36
:1004A000542AF80A0319DB175808F907031C5B2ABA
:1004B000F80A0319DB175708D400D4175408F807B3
:1004C0000318DB17DB0DF80CF90CFA0CDE0CDD0C55
:1004D000DC0C0310DA0B472A0130F7070318942AC3
:1004E000F81B792ADE0DFA0DF90DF80DF703031943
:1004F000942ADE1F8A2AFA0A031D8A2AF90A031D92
:100500008A2AF80A031D8A2AF80CF90CFA0CF70A51
:100510000319942A5308DB005708DB06DB1F922AD5
:10052000F817982AF813982AF701F801F901FA0147
:100530007A08D5007908D4007808D3007708D2006B
:10054000AB217908D3007808D20044308316C2006A
:10055000831279088316C400831278088316C300B7
:100560008312CA210130F800080001308316C70049
:1005700083122A2178088316C2004108FA00400835
:10058000C3004108C400420EF7000F30F70577089A
:100590000139F8007818D32A4308840083134418DB
:1005A00083170010D92A4308840083134418831743
:1005B00000144008F8004108FA007808C300410818
:1005C000C400420CF700F70CF70C1F30F705770852
:1005D0000139F8007818F32A43088400831344187B
:1005E00083170011F92A43088400831344188317E2
:1005F00000154108FA004008C3004108C400420C3D
:10060000F700F70C3F30F70577080139F800781844
:10061000102B430884008313441883178010162B73
:100620004308840083134418831780144008F8009B
:100630004108FA007808C3004108C400420EF700E0
:10064000F70CF70C0330F70577080139F800781834
:10065000302B430884008313441883178011362BF2
:100660004308840083134418831780154108FA0057
:100670004008C3004108C400F701C21B7714770883
:100680000139F80078184B2B430884008313441871
:1006900083170012512B43088400831344188317D7
:1006A0000016831208008316C608031D652B503000
:1006B000C70083122A2101307807F7000310F70DD5
:1006C0007708F800782B782B8316460B752B703043
:1006D000C70083122A2101307807F7000310F70DB5
:1006E0007708F800782B782B8316FF30F8008312F8
:1006F000080020308316E100DD01DE01DF01E001AA
:100700005808FA005708F9005608F8005508F7008D
:100710000310771C992B5908DD075A0803185A0F44
:10072000DE075B0803185B0FDF075C0803185C0F2C
:10073000E007E00CDF0CDE0CDD0CFA0CF90CF80C19
:10074000F70CE10B882B831208008318AA2BDD30ED
:1007500084008313F701F801F901FA018316DD0122
:10076000DE01DF01E0015C085B045A04590403194F
:10077000E92B2030E1000310D50DD60DD70DD80D93
:10078000DD0DDE0DDF0DE00D5C086002031DD22BD8
:100790005B085F02031DD22B5A085E02031DD22B99
:1007A00059085D02031CE32B5908DD025A08031C9B
:1007B0005A0FDE025B08031C5B0FDF025C08031CA0
:1007C0005C0FE0020314F70DF80DF90DFA0DE10BC3
:1007D000BB2B5D088000840A5E088000840A5F08E5
:1007E0008000840A60088000831208008316D80104
:1007F000D7010930D600D501DC01DB01DA014C0854
:10080000D900831279237A088316D4007908D3009B
:100810007808D2007708D1005408D8005308D700D0
:100820005208D6005108D500DC01DB010630DA00A1
:100830007730D900831279237A088316D400790897
:10084000D3007808D2007708D100F430D107013006
:1008500003180230D207003003180130D3070030EC
:1008600003180130D40783105408D8005308D70068
:100870005208D6005108D500DC01DB010330DA0054
:10088000E830D9008312A5237A088316D0007908AE
:10089000CF007808CE007708CD00D801D7014B08EB
:1008A000D6004A08D5005008DC004F08DB004E088F
:1008B000DA004D08D900831279237A088316D40010
:1008C0007908D3007808D2007708D1000310500CC3
:1008D000FA004F0CF9004E0CF8004D0CF700D10750
:1008E00078080318780FD20779080318790FD3070F
:1008F0007A0803187A0FD40783105408D8005308D5
:10090000D7005208D6005108D500DC01DB010330C6
:10091000DA00E830D9008312A52308008316911469
:100920009118902C83122B088316CA008312082179
:1009300083164608CA00831208217808B600831679
:1009400091149118A12C83122B0801388316C90029
:10095000CA00831208210130F7001A217808831693
:10096000CA01C900C800C701F70183121A2178081B
:100970008316C7044708F8004808F90083120800E6
:1009800083164808CA00CB01CC014908CD00FA0102
:10099000F700F7080319D12C0310CA0DCB0DF70B84
:1009A000CC2C01304A07F8004B08FA000318FA0A69
:1009B0007A08F9008312080083164208F8004308F9
:1009C000FA004208C4004308C500C601831253233D
:1009D000831644088400831345188317840A800112
:1009E00084037808800004304207F8004308FA00C6
:1009F0000318FA0A7808C4007A08C5004630C70010
:100A000083122A21013078078316C6004408840027
:100A1000831345188317840A8001840346088000E5
:100A20000A304207F8004308FA000318FA0A780867
:100A3000C4007A08C50004304207840083134318B9
:100A40008317840A0008C70084030008C600420810
:100A50008400831343188317840A0008C9008403A1
:100A60000008C8004708CB004608CA004808CC0068
:100A70008312F623831644088400831345188317D2
:100A800077088000840A78088000840A790880004A
:100A9000840A7A08800006304207F8004308FA000A
:100AA0000318FA0A7808C4007A08C5005130C60055
:100AB00083128E2479088316C7007808C600470879
:100AC000C9004608C8008312C02483164408840065
:100AD000831345188317840A7908800084037808F3
:100AE00080000E304207F8004308FA000318FA0AA3
:100AF0007808C4007A08C5000630420784008313D2
:100B000043188317840A0008C70084030008C6003E
:100B100042088400831343188317840A0008C9001D
:100B200084030008C8004708CB004608CA004808EC
:100B3000CC008312F62383164408840083134518DF
:100B4000831777088000840A78088000840A79086F
:100B50008000840A7A08800002304207F8004308C7
:100B6000FA000318FA0A7808C4007A08C5000130B0
:100B7000C600831253238316440884008313451848
:100B80008317840A800184037808800008304207B4
:100B9000F8004308FA000318FA0A7808C4007A0833
:100BA000C5007130C60083128E2479088316C700F1
:100BB0007808C6004708C9004608C8008312C02448
:100BC000831644088400831345188317840A790820
:100BD0008000840378088000400884008313411853
:100BE0008317801D2D2E08304207F8004308FA00B5
:100BF0000318FA0A7808C4007A08C500440884007B
:100C0000831345188317840A0008C700840300086B
:100C1000C600063042078400831343188317840AF2
:100C20000008FA00840300084602F7007A08031C53
:100C30007A0F1C2E47081D2E4702FA007708C600BF
:100C40007A08C70044088400831345188317840A70
:100C50004708800084034608800012304207F800ED
:100C60004308FA000318FA0A7808C4007A08C50095
:100C7000083042078400831343188317840A00084E
:100C8000C70084030008C6000230420784008313B3
:100C900043188317840A0008C90084030008C800A9
:100CA0004708CB004608CA004808CC008312F62348
:100CB000831644088400831345188317770880003F
:100CC000840A78088000840A79088000840A7A08F7
:100CD0008000831208008316D801D7010930D6009E
:100CE000D501DC01DB01DA014408D9008312792344
:100CF0007A088316CC007908CB007808CA007708F8
:100D0000C9004C08D8004B08D7004A08D60049084B
:100D1000D500DC01DB010630DA007730D900831220
:100D200079237A088316CC007908CB007808CA00AA
:100D30007708C900F430C907013003180230CA0728
:100D4000003003180130CB07003003180130CC0706
:100D500083104C08D8004B08D7004A08D600490831
:100D6000D500DC01DB010330DA00E830D900831262
:100D7000A5237A088316C8007908C7007808C6003A
:100D80007708C5004308D8004208D7004108D600BC
:100D90004008D500DC01DB010330DA00E830D9007F
:100DA000831279237A088316CC007908CB0078085F
:100DB000CA007708C9000310480CFA00470CF90074
:100DC000460CF800450CF700C90778080318780F9F
:100DD000CA0779080318790FCB077A0803187A0F26
:100DE000CC0783104C08D8004B08D7004A08D6001F
:100DF0004908D5004808DC004708DB004608DA004F
:100E00004508D9008312A52308008316C501C40133
:100E1000C301C201C701C601C008031D122FC108CA
:100E200003194C2F01304002C2004108C3000030BA
:100E3000031C0130C302C401C501C8014308C90035
:100E40004408CA004508CB00C808031D302FC90854
:100E5000031D302FCA08031D302FCB080319392F6B
:100E60000310C50CC40CC30CC20CC60A0319C70A74
:100E70001D2F4608C900C8014208F700F801F90112
:100E8000FA0177084804F70078084904F800F900E7
:100E90007708F8004F2F4F2F0030F800F900831229
:100EA000080063080138E400E5016408E600502109
:100EB0003C08B0003B08AF0013308316C700831214
:100EC0002A2178080739031D822FAC08031D6B2FD8
:100ED000AD080319812F2F083B02E4003C08E50010
:100EE0003008031C300FE5022D086502031C812F1A
:100EF000031D7E2F64082C020318812F0030F80098
:100F00008C2F5C2F0B30E5000130E6005021E5010D
:100F1000E60150210130F80008004D08F8014C02AC
:100F20000318952F4C08F700A12FF7010830CE00C9
:100F3000CC0DF70D4D0877020318F700F80DCE0B16
:100F4000982F08008E30F7004308F8004208F90097
:100F5000FA01F808031DB62F7908F800F9010830E6
:100F6000F702F808031DB62FF701BE2F0310F81B78
:100F7000BD2FF90DF80DF703B62FF8138A110A16D5
:020F8000662EDB
:10100000E608031D1328E508031D132864084E3C59
:10101000031C1328031D102863081F3C031C1328FE
:101020000030F8005129EB01EA010830E900E8300E
:10103000E8008316C1016730C0008A118312B5220F
:101040008A158316C1016730C000C301A030C200F9
:101050008A118312DC248A15671C53284E308316AC
:101060002A07F7002B08F800023003180330F807AE
:101070002C08F900003003180130F9072D08FA0098
:10108000003003180130FA0777088312E807780860
:101090000318780FE90779080318790FEA077A0827
:1010A00003187A0FEB07671D8028B23083162A07D2
:1010B000F7002B08F800023003180330F8072C085B
:1010C000F900003003180130F9072D08FA0000304C
:1010D00003180130FA070310F70DF80DF90DFA0D9A
:1010E00077088312E80778080318780FE90779086A
:1010F0000318790FEA077A0803187A0FEB07A72875
:10110000E71CA728943083162A07F7002B08F8005D
:10111000023003180330F8072C08F90000300318D8
:101120000130F9072D08FA00003003180130FA07E2
:1011300077088312E80778080318780FE907790819
:101140000318790FEA077A0803187A0FEB07E71DEF
:10115000CE28943083162E07F7002F08F8000230AF
:1011600003180330F8073008F90000300318013085
:10117000F9073108FA00003003180130FA07770840
:101180008312E80778080318780FE907790803182D
:10119000790FEA077A0803187A0FEB07671E4F29C1
:1011A0002630E807023003180330E907003003183F
:1011B0000130EA07003003180130EB0766086B02C4
:1011C000031CF728031DF42865086A02031CF7288E
:1011D000031DF42864086902031CF728031DF42882
:1011E000680863020318F7280030F80051296808DE
:1011F0006302EC006408ED006908031C690FED024E
:101200006508EE006A08031C6A0FEE026608EF002C
:101210006B08031C6B0FEF026F088316C300831269
:101220006E088316C20083126D088316C1008312F4
:101230006C088316C0002208C4008A1183126B2632
:101240008A157808F1007708F000E71D2F2983162A
:101250002608F00727080318270FF10783127108E3
:101260008316C1007008C0008A11831205278A15F1
:101270007908F3007808F20071308316C200730811
:10128000C4007208C3008A118312CA218A15660835
:10129000B5006508B4006408B3006308B20001300B
:1012A000F80008000A30E5000430E6008A115021F9
:1012B0008A1584308316C7008A1183122A218A1561
:1012C0007808EF39CE008430E5004E08E6008A1138
:1012D00050218A150B30E5000130E6008A115021BB
:1012E0008A15E801E7010B30E6003630E500831689
:1012F000C1014E30C0008A118312B5228A158316AF
:10130000C1014E30C000C3014F30C2008A118312A8
:10131000DC248A154E1CAF294E305907F7005A08B5
:10132000F800023003180330F8075B08F9000030BA
:1013300003180130F9075C08FA0000300318013087
:10134000FA077708E50778080318780FE6077908A1
:101350000318790FE7077A0803187A0FE8074E1D7C
:10136000DA29B2305907F7005A08F800023003189A
:101370000330F8075B08F900003003180130F90763
:101380005C08FA00003003180130FA070310F70D6B
:10139000F80DF90DFA0D7708E50778080318780FAE
:1013A000E60779080318790FE7077A0803187A0F18
:1013B000E807FF29CE1CFF2994305907F7005A0887
:1013C000F800023003180330F8075B08F90000301A
:1013D00003180130F9075C08FA00003003180130E7
:1013E000FA077708E50778080318780FE607790801
:1013F0000318790FE7077A0803187A0FE807CE1D5C
:10140000242A94305D07F7005E08F80002300318C4
:101410000330F8075F08F900003003180130F907BE
:101420006008FA00003003180130FA077708E50772
:1014300078080318780FE60779080318790FE7078B
:101440007A0803187A0FE8074E1E492A26306107EA
:10145000F7006208F800023003180330F807630849
:10146000F900003003180130F9076408FA00003071
:1014700003180130FA077708E50778080318780F92
:10148000E60779080318790FE7077A0803187A0F37
:10149000E8076808B5006708B4006608B300650887
:1014A000B2006508F7006608F8006708F9006808E8
:1014B000FA007A08B5007908B4007808B300770814
:1014C000B2000130E500E830E6008A1150218A15AB
:1014D0003508E6003408E5003308E4003208E3008C
:1014E00000200130E500E6008A1150218A154030C5
:1014F000E3008A1151278A15F808031D822A00305B
:10150000F8009C2A0130E5000230E6008A115021E3
:101510008A15E3018A1151278A15F808031D932AB9
:101520000030F8009C2A0130E500E830E6008A111E
:1015300050218A150130F8008A110A16702C031008
:10154000430CFF3EC4008316C1014530C0008A1120
:101550008312B5228A158316C1014530C000C3012C
:101560004630C2008A118312DC248A15C208031D8A
:101570006C2B43080C3A0319C72A023A0319CF2AE5
:101580001E3A0319D72A023A0319DF2AE72A5730ED
:10159000E5001830E6008A1150218A15EA2A5730F2
:1015A000E5003030E6008A1150218A15EA2A5730CA
:1015B000E5004030E6008A1150218A15EA2A5730AA
:1015C000E5005030E6008A1150218A15EA2A0030E1
:1015D000F800B32C5630E5000830E6008A1150219F
:1015E0008A155030E5004408E6008A1150218A151A
:1015F00057088316C300831256088316C20083124D
:1016000055088316C100831254088316C000831244
:1016100043088316C4008A1183126B268A15780842
:10162000DD007708DC005D088316C10083125C08CA
:101630008316C0008A11831205278A157908E400F1
:101640007808E30051308316C200831279088316AC
:10165000C400831278088316C3008A118312CA213A
:101660008A1553088316C300831252088316C200DA
:10167000831251088316C100831250088316C000DC
:10168000831243088316C4008A1183126B268A15BD
:101690007808DF007708DE005F08003C0318592B4C
:1016A000FF3A031D572B5E08003C0318592BFF30EF
:1016B000632B01305E02F7005F08FA000030031C64
:1016C0000130FA027708E3004630E5006308E600DF
:1016D0008A1150218A158D2C420B8A2C4308083A16
:1016E00003197C2B023A0319AC2B063A0319DD2BA4
:1016F000023A03190E2C3E2C4830E5001030E6006B
:101700008A1150218A154730E5000830E6008A1119
:1017100050218A153230E5000230E6008A1150214E
:101720008A153030E5000C30E6008A1150218A1508
:10173000FF30E5000130E6008A1150218A15303073
:10174000E500E6008A1150218A15FF30E500E60128
:101750008A1150218A15412C4830E5002830E600D6
:101760008A1150218A154730E5000830E6008A11B9
:1017700050218A153230E5000330E6008A115021ED
:101780008A153030E5000930E6008A1150218A15AB
:10179000FF30E5000130E6008A1150218A15303013
:1017A000E5002030E6008A1150218A15FF30E5005F
:1017B000E6018A1150218A15412C4830E500383065
:1017C000E6008A1150218A154730E5000830E6000E
:1017D0008A1150218A153230E5000330E6008A1163
:1017E00050218A153030E5000830E6008A1150217A
:1017F0008A15FF30E5000130E6008A1150218A1574
:101800003030E5002030E6008A1150218A15FF3083
:10181000E500E6018A1150218A15412C4830E50087
:10182000E6008A1150218A154730E5000830E600AD
:101830008A1150218A153230E5000330E6008A1102
:1018400050218A153030E5000730E6008A1150211A
:101850008A15FF30E5000130E6008A1150218A1513
:101860003030E5002030E6008A1150218A15FF3023
:10187000E500E6018A1150218A15412C0030F8005C
:10188000B32C7030E5004408E6008A1150218A1517
:101890005B088316C30083125A088316C2008312A2
:1018A00059088316C100831258088316C00083129A
:1018B00043088316C4008A1183126B268A157808A0
:1018C000E1007708E000C51D6B2C4C08E0074D08CF
:1018D00003184D0FE10761088316C10083126008E9
:1018E0008316C0008A11831205278A157908E4003F
:1018F0007808E30071308316C200831279088316DA
:10190000C400831278088316C3008A118312CA2187
:101910008A158D2C0030F800B32C3508E600340809
:10192000E5003308E4003208E300002001308316AC
:10193000C7008A1183122A218A157808E200013033
:10194000E5000230E6008A1150218A15E3018A1170
:1019500051278A150130E5006208E6008A115021FE
:101960008A150130F80008008030E5000130E600FB
:101970008A1150218A15FF30E5000130E6008A11F6
:1019800050218A15E501E6018A1150218A1591300E
:10199000E5003108E6008A1150218A15E501013081
:1019A000E6008A1150218A15FF30E500E6018A1110
:1019B00050218A158030E500E6018A1150218A15F0
:1019C000E5010130E6008A1150218A153C08B0007B
:1019D0003B08AF008316C7018A1183122A218A159A
:1019E000781C112DAC08031DF82CAD080319102D1F
:1019F0002F083B02C6003C08C7003008031C300F0C
:101A0000C7022D084702031C102D031D0B2D46088D
:101A10002C020318102D2E14FF30F800F900562D5B
:101A2000EA2C3C08B0003B08AF0013308316C70017
:101A30008A1183122A218A1578080739031D3F2D40
:101A4000AC08031D262DAD0803193E2D2F083B02BF
:101A5000C8003C08C9003008031C300FC9022D081B
:101A60004902031C3E2D031D392D48082C02031882
:101A70003E2D2E14FF30F800F900552D152D1E3087
:101A80008316C6008A1183128E248A157908C7002E
:101A90007808C6000B30E5000130E6008A115021BD
:101AA0008A154608F8004708F90079080800430835
:101AB000C6001830C7002030471E3030C800460826
:101AC000F700C61F6B2DF709F70A7708C6002D30FF
:101AD000C800C71747144608CC006430CD008A11EF
:101AE0008D278A157708C60030307807C900460868
:101AF000CC000A30CD008A118D278A153030770747
:101B0000CB0030307807CA004808F700303049026F
:101B100003198E2DC714C71B4715A22D4808C900ED
:101B20002030C80030304A0203199A2D4714C71BD1
:101B3000C714A22D031D4714031DA22D4908CA0076
:101B40002030C9004719A92DC718AD2D4718B12D50
:101B5000B52D48080C1EAA2D990049080C1EAE2D63
:101B600099004A080C1EB22D99004B080C1EB62D88
:101B700099000D300C1EBA2D99000A300C1EBE2D96
:101B80009900B4247908C7007808C6001030840092
:101B90004708C9004608C800D0010408CF0050100B
:101BA000831B5014490EF038CB00CB07E23ECC002B
:101BB000323ECE0049080F39CC07CC07CE07E93EAC
:101BC000CD00CD07CD07480E0F39CD07CE07CD0D7F
:101BD000CE0DCE09CE0D48080F39CE07CB0D0730FC
:101BE000CA000A30CE07CD03031CF22DCD07CC036B
:101BF000031CF62DCC07CB03031CFA2DCB07CA031D
:101C0000031CFE2D4A308400831307304F054F1309
:101C100084074E30040203194F170008F700031D14
:101C2000192E4F1B192E4F1A212ECF19192E203085
:101C30001C2ECF154F123030F70777080C1E1E2EC2
:101C40009900840A4F1F092E0D300C1E252E990075
:101C50000A300C1E292E9900B4247908C500780892
:101C6000C4004308033C031D4C2EC508031D3C2E35
:101C70004408DC3C0318412E831606108312061418
:101C80004C2EC508031D482E4408633C03184C2EF7
:101C900083160610831206104308063C031D712E9E
:101CA000C508031D572E4408D23C0318662E45086C
:101CB000013C031C662E031D612E44082B3C031CB3
:101CC000662E8316861083128610712EC508031D9A
:101CD0006D2E4408D23C0318712E83168610831291
:101CE00086144308093C031D9D2E4508003C03183B
:101CF0008F2EFF3A031D802E44080E3C03188F2EB2
:101D00004508013C031C8F2E031D8A2E4408493CC4
:101D1000031C8F2E83160611831206119D2E450873
:101D2000013C031C992E031D982E44080E3C0318F9
:101D30009D2E831606118312061543080C3C031DC5
:101D4000C92E4508003C0318BB2EFF3A031DAC2EDC
:101D50004408A43C0318BB2E4508013C031CBB2EC1
:101D6000031DB62E4408BC3C031CBB2E83168611F3
:101D700083128611C92E4508013C031CC52E031D84
:101D8000C42E4408A43C0318C92E8316861183125E
:101D900086154308143C031DF52E4508003C031826
:101DA000E72EFF3A031DD82E4408AE3C0318E72E59
:101DB0004508013C031CE72E031DE22E4408CB3CE2
:101DC000031CE72E8316061283120612F52E450811
:101DD000013C031CF12E031DF02E4408AE3C0318F9
:101DE000F52E83160612831206164308173C031DB0
:101DF000212F4508003C0318132FFF3A031D042F21
:101E000044085E3C0318132F4508013C031C132FA4
:101E1000031D0E2F44087B3C031C132F831606134F
:101E200083120613212F4508013C031C1D2F031D9F
:101E30001C2F44085D3C0318212F831606138312C0
:101E4000061743081A3C031D4A2FC508031D2C2FF3
:101E50004408D23C03183D2F4508013C031C3D2F8C
:101E6000031D362F44082B3C031C3D2F3710370829
:101E700083168700831207104A2FC508031D442FBD
:101E80004408D23C03184A2F3710370883168700BE
:101E90008312071443081E3C031D692FC508031D48
:101EA000552F4408DC3C03185C2FB7123708831603
:101EB000870083128716692FC508031D632F440806
:101EC000633C0318692FB712370883168700831203
:101ED00087120230C600FA30C700473084008313EF
:101EE00000080319802F0230F800F701F70B762F56
:101EF000F80B752F9730F700F70B7C2F800B732FA3
:061F0000C60B6B2F080068
:10200000831606138312061783160613831206130C
:10201000A33003178D0000308F000A120313B02085
:102020000A160130C2005230AB00AD01AC012E10D7
:10203000C20803192C2889308316C7000A1283129C
:102040002A210A1678080138CE008930E5004E08AA
:10205000E6000A1250210A168830E500E6010A124D
:1020600050210A168030E5000130E6000A125021A6
:102070000A16FF30E5000130E6000A1250210A1668
:10208000E501E6010A1250210A1691308316C700B5
:102090000A1283122A210A167808B100E5010130DC
:1020A000E6000A1250210A16FF30E500E6010A1286
:1020B00050210A168030E500E6010A1250210A1666
:1020C00060308316C7000A1283122A210A16780884
:1020D0001238CE006030E5004E08E6000A125021AA
:1020E0000A16D101D001CF017D30CE000A12F221B3
:1020F0000A160130E500FF30E6000A1250210A16E8
:10210000CF014330CE00D1014430D0008030E50013
:102110000130E6000A1250210A16FF30E5000130B6
:10212000E6000A1250210A16E501E6010A125021C2
:102130000A16FF30E5000630E6000A1250210A16A2
:1021400083308316C7000A1283122A210A167808E0
:102150000438D3008330E5005308E6000A1250210A
:102160000A16FF30E5000730E6000A1250210A1671
:102170008130E5000130E6000A1250210A16803055
:10218000E5000130E6000A1250210A169430E500FD
:102190006B30E6000A1250210A168330E500E60192
:1021A0000A1250210A163C08B0003B08AF008330E9
:1021B0008316C7000A1283122A210A16F808031D83
:1021C000FE28AC08031DE728AD080319FD282F08D9
:1021D0003B02D3003C08D4003008031C300FD4026B
:1021E0002D085402031CFD28031DFA2853082C0255
:1021F0000318FD280030F8005929D7288330E5005E
:102200000130E6000A1250210A1692308316C700E8
:102210000A1283122A210A167808D2004E08840076
:1022200083134F18831752087F39800050088400A9
:10223000831351188317F701D21B771477080139DC
:1022400080008130E500E6010A1250210A16FF30B5
:10225000E5000630E6000A1250210A168330831684
:10226000C7000A1283122A210A167808D300833085
:10227000E5007808E6000A1250210A16FF30E50052
:102280000130E6000A1250210A16E5010130E6008D
:102290000A1250210A16FF30E500E6010A12502109
:1022A0000A168030E500E6010A1250210A160130B4
:1022B000F800F808031D5F290030F800732CB030D7
:1022C000CE00D0014530CF000630D1008316111466
:1022D0001118682983122B088316CA000A12831268
:1022E00008210A164E088316CA000A128312082112
:1022F0000A167808B6008316911491187D29831266
:102300002B080138D2008316CA000A128312082152
:102310000A165108D103013C0318A0295008FA00FD
:102320004F08CF0A0319D00A840083137A18831741
:102330000130F7000A121A210A167808800089294C
:102340005008FA004F08CF0A0319D00A84008313FB
:102350007A188317F7010A121A210A1678088000E2
:10236000831611151119B229FF308312E5000130CF
:10237000E6000A1250210A164F30E500E6010A1263
:1023800050210A164E30E5002C30E6000A1250218A
:102390000A16FF30E500E6010A1250210A16B6308F
:1023A000E500B430E6000A1250210A16C4080319E9
:1023B000DB290C30DC290030CB00CC01CD014D08ED
:1023C0002F3C031C242A4B084D02031CEB29430815
:1023D0004C02031D062A4D0CF700F70CF70C1F30BA
:1023E000F7057708453E840083134D080739F80048
:1023F0000130F700F8080319012A0310F70DF80B54
:10240000FD297708FF3A00058000222A4D0CF700CD
:10241000F70CF70C1F30F7057708453E840083134F
:102420000008CE004D080739F8004E08F700F808FC
:1024300003191E2A0310F70CF80B1A2A7708013922
:10244000031DCC0ACD0ADF29B030CE00D0014530C3
:10245000CF000630D1008316911491182D2A8312D3
:102460002B088316CA000A12831208210A164E0886
:102470008316CA000A12831208210A165108D103D2
:10248000003A0319582A5008FA004F08CF0A0319D6
:10249000D00A840083137A1883170008D2008316A9
:1024A000CA000A12831208210A167808B6003E2ACA
:1024B0008316111511195A2AFF308312E5000130D5
:1024C000E6000A1250210A16E501E6010A1250211F
:1024D0000A16FF30E500E6010A1250210A160930FB
:1024E000E500E6010A1250210A161030E500E60167
:1024F0000A1250210A161130E500E6010A12502195
:102500000A162430E5000130E6000A1250210A16AE
:102510002530E500FF30E6000A1250210A1675301A
:10252000E500E6010A1250210A16FF30E5000130ED
:10253000E6000A1250210A164E30E5002C30E60063
:102540000A1250210A164830E500E6010A1250210D
:102550000A163030E5002030E6000A1250210A1633
:10256000FF30E500E6010A1250210A163030E5007E
:102570000930E6000A1250210A165430E500E6013F
:102580000A1250210A163130E5000430E6000A1222
:1025900050210A163230E5000330E6000A125021BD
:1025A0000A164030E5008330E6000A1250210A1670
:1025B0004630E5002530E6000A1250210A16603048
:1025C000E500E6010A1250210A162730E500E6016F
:1025D0000A1250210A165030E5000630E6000A12B1
:1025E00050210A165130E500E6010A1250210A1660
:1025F0005230E5009630E6000A1250210A16563095
:10260000E5000830E6000A1250210A165730E500AE
:102610003030E6000A1250210A166130E500E6016A
:102620000A1250210A166230E500E6010A12502112
:102630000A166430E500E6010A1250210A166530D8
:10264000E500E6010A1250210A166630E500A030C6
:10265000E6000A1250210A16FF30E5000130E600BC
:102660000A1250210A162230E5003230E6000A1222
:1026700050210A164730E5001430E6000A125021B6
:102680000A164930E500FF30E6000A1250210A160A
:102690004A30E500E6010A1250210A16FF30E50033
:1026A000E6010A1250210A167A30E5000A30E600E7
:1026B0000A1250210A167B30E500E6010A12502169
:1026C0000A167830E5002130E6000A1250210A1679
:1026D000FF30E5000130E6000A1250210A162330CF
:1026E000E5003430E6000A1250210A164230E500B7
:1026F000E6010A1250210A164430E500FF30E600D8
:102700000A1250210A164530E5002630E6000A126A
:1027100050210A164630E5000530E6000A12502125
:102720000A164030E500E6000A1250210A160E3063
:10273000E5000630E6000A1250210A162030E500B6
:102740001A30E6000A1250210A164330E5004030E4
:10275000E6000A1250210A16FF30E500E6010A12CF
:1027600050210A163430E5000330E6000A125021E9
:102770000A163530E5004430E6000A1250210A16E8
:10278000FF30E5000130E6000A1250210A16313010
:10279000E5000430E6000A1250210A164B30E5002D
:1027A0000930E6000A1250210A164C30E5000530C7
:1027B000E6000A1250210A164D30E5000430E6000A
:1027C0000A1250210A16FF30E500E6010A125021D4
:1027D0000A164430E500E6010A1250210A16453077
:1027E000E5002030E6000A1250210A164730E500C5
:1027F0000830E6000A1250210A164830E500283059
:10280000E6000A1250210A166730E500E6010A12B6
:1028100050210A167030E5000430E6000A125021FB
:102820000A167130E5000130E6000A1250210A163E
:102830007230E500FE30E6000A1250210A167630AA
:10284000E500E6010A1250210A167730E500E6019C
:102850000A1250210A16FF30E5000130E6000A1284
:1028600050210A160D30E5000130E6000A12502111
:102870000A16FF30E500E6010A1250210A168030E0
:10288000E5000130E6000A1250210A160130E50089
:10289000F830E6000A1250210A16FF30E500013038
:1028A000E6000A1250210A168E30E5000130E600DB
:1028B0000A1250210A16E5010130E6000A125021E1
:1028C0000A16FF30E500E6010A1250210A16803090
:1028D000E500E6010A1250210A160A128A15522949
:1028E0000A168A117808CD30D100CC30D0004C3097
:1028F000CF007B30CE000A12F2210A16C20112303C
:10290000C3000A128A159F220A168A110130C200DA
:102910000E30C3000A128A159F220A168A11E60198
:102920000330E5000D30E4004030E3000A128A1560
:1029300000200A168A118A110A163F2E8030831849
:10294000C706CC01CD014308CB004708CB0642089F
:1029500003198E2DCA00F70046080319972DCA02E5
:102960000319332D031CF12C4708D000D017480859
:10297000CF004908CE00CD010310D00CCF0CCE0CF7
:10298000CD0CCA0BBB2CCB1FC82C4C14AB2D4C1040
:102990004A104C16453084008313C02D4C12CB1BBB
:1029A000DB2C4A1CE62CD00CCF0CCE0CCD0CF70A3D
:1029B0000319A62DE62CD01BE92C0310CD0DCE0D4E
:1029C000CF0DD00DF7030319A62DDB2C4C17532D7B
:1029D0004C134308CB00CB1FEF2CD0179F2DD013E7
:1029E0009F2D4608CA00F7004208CA024308D000DB
:1029F000D0174408CF004508CE00CD010310D00CFD
:102A0000CF0CCE0CCD0CCA0BFD2CCB1F0A2DCC1439
:102A1000AB2DCC104A10CC16493084008313C02D46
:102A2000CC12CB1B1D2D4A1C282DD00CCF0CCE0C4C
:102A3000CD0CF70A0319A62D282DD01B2B2D031022
:102A4000CD0DCE0DCF0DD00DF7030319A62D1D2DE5
:102A5000CC17532DCC134708CB00CB1F312DD017EB
:102A60009F2DD0139F2D4708D000D0174808CF00C6
:102A70004908CE00CB1F402DD0134C15AB2D4C1167
:102A8000CD014A10453084008313C02DCB1B692D26
:102A90004308CB004A1C532DD00CCF0CCE0CCD0CD0
:102AA000F70A0319A62DCD1F642DCE0A031D642D30
:102AB000CF0A031D642DD00A031D642DD00CCF0C4A
:102AC000CE0CF70A0319A62D4C1BE82CCC1B2A2D83
:102AD000882D8030D006D01F712DAB2D4708CB003C
:102AE0007E2D4308CB00D008031D7E2DCF08031D8B
:102AF0007E2DCE08031D7E2DF7019F2DD01B882D26
:102B00000310CD0DCE0DCF0DD00DF70B7E2DA62DC4
:102B1000CB1F8C2DD0179F2DD0139F2D4608F7006B
:102B20004708D0004808CF004908CE009F2D420832
:102B3000F7004308D0004408CF004508CE005008F5
:102B4000F8004F08F9004E08FA00DE2DF701F801F1
:102B5000F901FA01DE2DCD01CE09CF09D009CD0949
:102B6000CD0A031DB92DCE0A031DB92DCF0A0319B5
:102B7000D00A4C18C72CCC18092D4C193F2D6E2D9E
:102B80000008CE07031CCA2DCF0A031DCA2DD00A88
:102B900003194A1484030008CF07031CD22DD00A5E
:102BA00003194A1484030008801F803AD0070318D1
:102BB0004A144C1ACE2CCC1A102D462D8A110A1606
:102BC000772E03081F398300713083168F00900120
:102BD0000F08031787110C3003139900A2309800D7
:102BE000903083129800FF30B700B715370883166E
:102BF0008700831237163708831687001330930037
:102C00002830831294008316941714138312B8018A
:102C10000430BA00B030B900BE01BD01BC01BB0137
:102C20008316031787110C3003139900A230980004
:102C3000903083129800C001BF0183160317090862
:102C4000C039890003131F129F1200300317880038
:102C50008312870188018901831383160313861267
:102C600083128612253090008E01FE308F000B30CB
:102C70008E0083160C14C03083128B040028C3010D
:102C80000A128A1557250A168A11A93003178D00D2
:102C900000308F000A120313B0200A160130BA0068
:102CA0001830B900C10141081F3C031C882E0130B7
:102CB0004107C200C3000A128A1557250A168A1155
:102CC0003A08C3003908C2000A12A22F0A1683105C
:102CD0007A08C5007908C4007808C3007708C200E4
:102CE000C901C8016630C7008330C6009E2C7A082F
:102CF000D5007908D4007808D3007708D2000A12EA
:102D0000AB210A167908BA007808B900C10A532E17
:042D10003F2E6300EF
:04400E00C42FFF3F7D
:00000001FF
;PIC16F886
;CRC=E256  CREATED="07-May-17 04:19"
